:020000040800F2
:10000000680800204D020008510200085302000851
:1000100055020008570200085902000800000000BD
:100020000000000000000000000000005B0200086B
:100030005D020008000000005F02000817020008CF
:1000400063020008630200086302000863020008FC
:1000500063020008630200086302000863020008EC
:1000600063020008630200086302000863020008DC
:1000700063020008630200086302000863020008CC
:1000800063020008630200086302000863020008BC
:100090000000000000000000000000000000000060
:1000A0000000000000000000000000000000000050
:1000B00000000000000000000000000063020008D3
:1000C00000F002F800F02BF80AA090E8000C82443F
:1000D0008344AAF10107DA4501D100F020F8AFF21C
:1000E000090EBAE80F0013F0010F18BFFB1A43F016
:1000F000010318470C0200001C020000103A24BF44
:1001000078C878C1FAD8520724BF30C830C144BF7C
:1001100004680C6070471FB51FBD10B510BD00F01E
:10012000B4F81146FFF7F7FF00F02DF800F0D2F811
:1001300003B4FFF7F2FF03BC00F0DAF82948C06906
:1001400040F0C0702749C86170472748406840F4B4
:10015000F840254948600846C06840F4F840C86047
:100160002248C06840F440402049C8601E48806969
:100170001F4908431C4988611C48806940F0704051
:100180001A49886170470022FFF7D8FFFFF7DDFFAB
:1001900027E01648006800F4005030B9B2F5804FEF
:1001A00001DA520001E04FF4806200BF0F4800689E
:1001B00000F400500028F9D00C48006800F480409A
:1001C00030B9B2F5806F01DD521001E04FF480428A
:1001D00000BF0648006800F480400028F9D00248BB
:1001E0000260D6E70000024000000C4000800B4097
:1001F0000000F03F4FF0E021486107214FF0E0227E
:10020000116170474FF0E020006920F001004FF0CD
:10021000E021086170470C48006820B10A48006876
:10022000401E09490860704700B503465BB10648A7
:1002300003601846FFF7DEFF00BF03480068002890
:10024000FBD1FFF7DFFF00BD00000020084800479A
:10025000FEE7FEE7FEE7FEE7FEE7FEE7FEE7FEE776
:10026000FEE7FEE703480449044A054B70470000D7
:10027000C100000868000020680800206804002011
:1002800068040020704770477047754600F02CF8EE
:10029000AE4605006946534620F00700854618B073
:1002A00020B5FFF7DFFFBDE820404FF000064FF01C
:1002B00000074FF000084FF0000B21F00701AC469B
:1002C000ACE8C009ACE8C009ACE8C009ACE8C009BA
:1002D0008D46704710B50446AFF300802046BDE858
:1002E0001040FFF725BF00000048704704000020C1
:1002F00001491820ABBEFEE726000200704700004F
:10030000100300080000002004000000FC000008AA
:0403100000000000E9
:04000005080000C12E
:00000001FF
