:020000040800F2
:1000000068080020F1020008F5020008F702000865
:10001000F9020008FB020008FD02000800000000D1
:10002000000000000000000000000000FF020008C7
:10003000010300080000000003030008BB020008E1
:100040000703000807030008070300080703000868
:100050000703000807030008070300080703000858
:100060000703000807030008070300080703000848
:100070000703000807030008070300080703000838
:100080000703000807030008070300080703000828
:100090000000000000000000000000000000000060
:1000A0000000000000000000000000000000000050
:1000B000000000000000000000000000070300082E
:1000C00000F002F800F03AF80AA090E8000C824430
:1000D0008344AAF10107DA4501D100F02FF8AFF20D
:1000E000090EBAE80F0013F0010F18BFFB1A43F016
:1000F00001031847B0020000D0020000103A24BFEC
:1001000078C878C1FAD8520724BF30C830C144BF7C
:1001100004680C60704700000023002400250026BE
:10012000103A28BF78C1FBD8520728BF30C148BF5A
:100130000B6070471FB51FBD10B510BD00F0F7F87C
:100140001146FFF7F7FF00F087F800F015F903B448
:10015000FFF7F2FF03BC00F01DF900004FF0FF3085
:100160004749C8610846406A40F04070486270479D
:100170004448406840F4F840424948600846C06836
:1001800040F4F840C860084680693F4908433D494B
:100190008861084680683D4908433A49886070474D
:1001A00079203B4948603B4948604FF6FF70384929
:1001B00088603849886042F210703549486148F6D5
:1001C000B80088614CF25030C8613249486148F645
:1001D000B800886142F21070C8612D48806A40F40E
:1001E00040602B4988620846806B40F6091108433D
:1001F000274988630846406A40F4406048620846E0
:10020000406B40F609110843214948630846C06A1B
:1002100040F44060C8620846C06B40F609110843CC
:100220001B49C8631B48806A40F4406019498862D2
:100230000846806B41F60911084316498863084651
:10024000406A40F4406048620846406B41F609113C
:100250000843104948637047FFF780FFFFF7A0FF8E
:10026000FFF786FF0A48C06840F001000849C860EF
:100270000848C06840F001000649C86000BFFEE7BA
:100280000000024000000C400000F03F0000901908
:1002900000000740008007404FF0E021486107213F
:1002A0004FF0E022116170474FF0E020006920F02C
:1002B00001004FF0E021086170470C48006820B150
:1002C0000A480068401E09490860704700B50346A7
:1002D0005BB1064803601846FFF7DEFF00BF034826
:1002E00000680028FBD1FFF7DFFF00BD0000002001
:1002F00008480047FEE7FEE7FEE7FEE7FEE7FEE709
:10030000FEE7FEE7FEE7FEE703480449044A054B23
:1003100070470000C1000008680000206808002045
:1003200068040020680400207047704770477546D5
:1003300000F02CF8AE4605006946534620F0070051
:10034000854618B020B5FFF7DFFFBDE820404FF02D
:1003500000064FF000074FF000084FF0000B21F0AF
:100360000701AC46ACE8C009ACE8C009ACE8C0097C
:10037000ACE8C0098D46704710B50446AFF3008065
:100380002046BDE81040FFF7E2BE0000004870477D
:100390000400002001491820ABBEFEE72600020041
:1003A00070470000C40300080000002004000000A3
:1003B000FC000008C80300080400002064080000D6
:0803C000180100080000000014
:04000005080000C12E
:00000001FF
